{
  "address": "0xe52C51a8e96E6399bB03cA22De773639637Ef958",
  "abi": [
    {
      "inputs": [
        {
          "internalType": "string",
          "name": "_name",
          "type": "string"
        },
        {
          "internalType": "string",
          "name": "_surname",
          "type": "string"
        },
        {
          "internalType": "string",
          "name": "_job",
          "type": "string"
        },
        {
          "internalType": "string",
          "name": "_desc",
          "type": "string"
        },
        {
          "internalType": "string",
          "name": "_github",
          "type": "string"
        },
        {
          "internalType": "string",
          "name": "_linkedin",
          "type": "string"
        }
      ],
      "name": "addProfile",
      "outputs": [],
      "stateMutability": "nonpayable",
      "type": "function"
    },
    {
      "inputs": [
        {
          "internalType": "address",
          "name": "",
          "type": "address"
        }
      ],
      "name": "profiles",
      "outputs": [
        {
          "internalType": "string",
          "name": "name",
          "type": "string"
        },
        {
          "internalType": "string",
          "name": "surname",
          "type": "string"
        },
        {
          "internalType": "string",
          "name": "jobTitle",
          "type": "string"
        },
        {
          "internalType": "string",
          "name": "desc",
          "type": "string"
        },
        {
          "internalType": "string",
          "name": "github",
          "type": "string"
        },
        {
          "internalType": "string",
          "name": "linkedin",
          "type": "string"
        }
      ],
      "stateMutability": "view",
      "type": "function"
    }
  ],
  "transactionHash": "0x760ada582c192fb9aac02901e1d575d8ca36c2a886a126aba4d72fdd18b84ca3",
  "args": [],
  "numDeployments": 1,
  "solcInputHash": "0417d8afe1cd7064de7729965f2c0b66",
  "bytecode": "0x608060405234801561001057600080fd5b506108a4806100206000396000f3fe608060405234801561001057600080fd5b50600436106100365760003560e01c8063bbe156271461003b578063ee72a59914610069575b600080fd5b61004e610049366004610495565b61007e565b6040516100609695949392919061050b565b60405180910390f35b61007c610077366004610630565b6103e2565b005b60006020819052908152604090208054819061009990610725565b80601f01602080910402602001604051908101604052809291908181526020018280546100c590610725565b80156101125780601f106100e757610100808354040283529160200191610112565b820191906000526020600020905b8154815290600101906020018083116100f557829003601f168201915b50505050509080600101805461012790610725565b80601f016020809104026020016040519081016040528092919081815260200182805461015390610725565b80156101a05780601f10610175576101008083540402835291602001916101a0565b820191906000526020600020905b81548152906001019060200180831161018357829003601f168201915b5050505050908060020180546101b590610725565b80601f01602080910402602001604051908101604052809291908181526020018280546101e190610725565b801561022e5780601f106102035761010080835404028352916020019161022e565b820191906000526020600020905b81548152906001019060200180831161021157829003601f168201915b50505050509080600301805461024390610725565b80601f016020809104026020016040519081016040528092919081815260200182805461026f90610725565b80156102bc5780601f10610291576101008083540402835291602001916102bc565b820191906000526020600020905b81548152906001019060200180831161029f57829003601f168201915b5050505050908060040180546102d190610725565b80601f01602080910402602001604051908101604052809291908181526020018280546102fd90610725565b801561034a5780601f1061031f5761010080835404028352916020019161034a565b820191906000526020600020905b81548152906001019060200180831161032d57829003601f168201915b50505050509080600501805461035f90610725565b80601f016020809104026020016040519081016040528092919081815260200182805461038b90610725565b80156103d85780601f106103ad576101008083540402835291602001916103d8565b820191906000526020600020905b8154815290600101906020018083116103bb57829003601f168201915b5050505050905086565b3360009081526020819052604090206103fb87826107ae565b5033600090815260208190526040902060010161041886826107ae565b5033600090815260208190526040902060020161043585826107ae565b5033600090815260208190526040902060030161045284826107ae565b5033600090815260208190526040902060040161046f83826107ae565b5033600090815260208190526040902060050161048c82826107ae565b50505050505050565b6000602082840312156104a757600080fd5b81356001600160a01b03811681146104be57600080fd5b9392505050565b6000815180845260005b818110156104eb576020818501810151868301820152016104cf565b506000602082860101526020601f19601f83011685010191505092915050565b60c08152600061051e60c08301896104c5565b828103602084015261053081896104c5565b9050828103604084015261054481886104c5565b9050828103606084015261055881876104c5565b9050828103608084015261056c81866104c5565b905082810360a084015261058081856104c5565b9998505050505050505050565b634e487b7160e01b600052604160045260246000fd5b600082601f8301126105b457600080fd5b813567ffffffffffffffff808211156105cf576105cf61058d565b604051601f8301601f19908116603f011681019082821181831017156105f7576105f761058d565b8160405283815286602085880101111561061057600080fd5b836020870160208301376000602085830101528094505050505092915050565b60008060008060008060c0878903121561064957600080fd5b863567ffffffffffffffff8082111561066157600080fd5b61066d8a838b016105a3565b9750602089013591508082111561068357600080fd5b61068f8a838b016105a3565b965060408901359150808211156106a557600080fd5b6106b18a838b016105a3565b955060608901359150808211156106c757600080fd5b6106d38a838b016105a3565b945060808901359150808211156106e957600080fd5b6106f58a838b016105a3565b935060a089013591508082111561070b57600080fd5b5061071889828a016105a3565b9150509295509295509295565b600181811c9082168061073957607f821691505b60208210810361075957634e487b7160e01b600052602260045260246000fd5b50919050565b601f8211156107a957600081815260208120601f850160051c810160208610156107865750805b601f850160051c820191505b818110156107a557828155600101610792565b5050505b505050565b815167ffffffffffffffff8111156107c8576107c861058d565b6107dc816107d68454610725565b8461075f565b602080601f83116001811461081157600084156107f95750858301515b600019600386901b1c1916600185901b1785556107a5565b600085815260208120601f198616915b8281101561084057888601518255948401946001909101908401610821565b508582101561085e5787850151600019600388901b60f8161c191681555b5050505050600190811b0190555056fea264697066735822122019bcff431c76e89f35b50d4d2fa24b07c9417e1ca8069406ae80870ac7a920ed64736f6c63430008110033",
  "devdoc": {
    "kind": "dev",
    "methods": {},
    "version": 1
  },
  "userdoc": {
    "kind": "user",
    "methods": {},
    "version": 1
  },
  "storageLayout": {
    "storage": [
      {
        "astId": 19,
        "contract": "contracts/YourContract.sol:YourContract",
        "label": "profiles",
        "offset": 0,
        "slot": "0",
        "type": "t_mapping(t_address,t_struct(profile)14_storage)"
      }
    ],
    "types": {
      "t_address": {
        "encoding": "inplace",
        "label": "address",
        "numberOfBytes": "20"
      },
      "t_mapping(t_address,t_struct(profile)14_storage)": {
        "encoding": "mapping",
        "key": "t_address",
        "label": "mapping(address => struct YourContract.profile)",
        "numberOfBytes": "32",
        "value": "t_struct(profile)14_storage"
      },
      "t_string_storage": {
        "encoding": "bytes",
        "label": "string",
        "numberOfBytes": "32"
      },
      "t_struct(profile)14_storage": {
        "encoding": "inplace",
        "label": "struct YourContract.profile",
        "members": [
          {
            "astId": 3,
            "contract": "contracts/YourContract.sol:YourContract",
            "label": "name",
            "offset": 0,
            "slot": "0",
            "type": "t_string_storage"
          },
          {
            "astId": 5,
            "contract": "contracts/YourContract.sol:YourContract",
            "label": "surname",
            "offset": 0,
            "slot": "1",
            "type": "t_string_storage"
          },
          {
            "astId": 7,
            "contract": "contracts/YourContract.sol:YourContract",
            "label": "jobTitle",
            "offset": 0,
            "slot": "2",
            "type": "t_string_storage"
          },
          {
            "astId": 9,
            "contract": "contracts/YourContract.sol:YourContract",
            "label": "desc",
            "offset": 0,
            "slot": "3",
            "type": "t_string_storage"
          },
          {
            "astId": 11,
            "contract": "contracts/YourContract.sol:YourContract",
            "label": "github",
            "offset": 0,
            "slot": "4",
            "type": "t_string_storage"
          },
          {
            "astId": 13,
            "contract": "contracts/YourContract.sol:YourContract",
            "label": "linkedin",
            "offset": 0,
            "slot": "5",
            "type": "t_string_storage"
          }
        ],
        "numberOfBytes": "192"
      }
    }
  }
}